S00E0000752D626F6F742E73726563C0
S315E6304000140000EA14F09FE514F09FE514F09FE5FE
S315E630401014F09FE514F09FE514F09FE514F09FE564
S315E6304020A04130E6004230E6604230E6C04230E655
S315E6304030204330E6804330E6E04330E678563412C5
S315E6304040004030E6A8100300A8100300EC4F070046
S315E630405098690300DEC0AD0B400000EB00000FE1CF
S315E63040601F00C0E3D30080E300F029E1100F11EE24
S315E6304070020AC0E3100F01EEA8039FE5100F0CEE1F
S315E6304080370000EB440000EB3C0200EB0040A0E1D9
S315E63040900150A0E10260A0E1A0004FE2060050E147
S315E63040A00090A0032200000A0610A0E16C301FE55E
S315E63040B0032080E00006B0E80006A1E8020050E101
S315E63040C0FBFFFF3A8C001FE5009046E06CA09FE5CB
S315E63040D000A08AE05C209FE5002082E058309FE52C
S315E63040E0003083E0000092E5090080E0041092E5B6
S315E63040F0FF7001E2170057E30700000A020057E3B4
S315E63041000000000A060000EA2112A0E101108AE06A
S315E6304110041091E5091081E0010000EA001090E50F
S315E6304120091081E0001080E5082082E2030052E1C2
S315E6304130EBFFFF3A1EFF2FE1A81003008868030065
S315E630414088680300150F07EE9A0F07EE950F07EE10
S315E6304150D0029FE5090080E0100F0CEE1EFF2FE13E
S315E63041601EFF2FE10000A0E3170F08EE150F07EE4E
S315E6304170D50F07EE9A0F07EE950F07EE100F11EEF5
S315E6304180020AC0E30700C0E30200C0E3020B80E3A5
S315E6304190010A80E3100F01EE0EF0A0E1667F00EA39
S315E63041A054D11FE500E08DE500E04FE104E08DE512
S315E63041B013D0A0E30DF069E10FE0A0E10EF0B0E137
S315E63041C048D04DE2FF1F8DE87C211FE50C0092E8D2
S315E63041D048008DE234508DE20E10A0E10F0085E8FE
S315E63041E00D00A0E16E0400FA00F020E300F020E3D3
S315E63041F000F020E300F020E300F020E300F020E3D7
S315E630420004D04DE200008DE5BC011FE500E080E517
S315E630421000004FE104E080E500009DE504D08DE244
S315E630422048D04DE2FF1F8DE8DC211FE50C0092E811
S315E630423048008DE234508DE20E10A0E10F0085E89D
S315E63042400D00A0E15C0400FA00F020E300F020E384
S315E630425000F020E300F020E300F020E300F020E376
S315E630426014D21FE500E08DE500E04FE104E08DE590
S315E630427013D0A0E30DF069E10FE0A0E10EF0B0E176
S315E630428048D04DE2FF1F8DE83C221FE50C0092E850
S315E630429048008DE234508DE20E10A0E10F0085E83D
S315E63042A00D00A0E14A0400FA00F020E300F020E336
S315E63042B000F020E300F020E300F020E300F020E316
S315E63042C074D21FE500E08DE500E04FE104E08DE5D0
S315E63042D013D0A0E30DF069E10FE0A0E10EF0B0E116
S315E63042E048D04DE2FF1F8DE89C221FE50C0092E890
S315E63042F048008DE234508DE20E10A0E10F0085E8DD
S315E63043000D00A0E1380400FA00F020E300F020E3E7
S315E630431000F020E300F020E300F020E300F020E3B5
S315E6304320D4D21FE500E08DE500E04FE104E08DE50F
S315E630433013D0A0E30DF069E10FE0A0E10EF0B0E1B5
S315E630434048D04DE2FF1F8DE8FC221FE50C0092E8CF
S315E630435048008DE234508DE20E10A0E10F0085E87C
S315E63043600D00A0E1260400FA00F020E300F020E399
S315E630437000F020E300F020E300F020E300F020E355
S315E630438034D31FE500E08DE500E04FE104E08DE54E
S315E630439013D0A0E30DF069E10FE0A0E10EF0B0E155
S315E63043A048D04DE2FF1F8DE85C231FE50C0092E80E
S315E63043B048008DE234508DE20E10A0E10F0085E81C
S315E63043C00D00A0E11A0400FA00F020E300F020E345
S315E63043D000F020E300F020E300F020E300F020E3F5
S315E63043E094D31FE500E08DE500E04FE104E08DE58E
S315E63043F013D0A0E30DF069E10FE0A0E10EF0B0E1F5
S315E630440048D04DE2FF1F8DE8BC231FE50C0092E84D
S315E630441048008DE234508DE20E10A0E10F0085E8BB
S315E63044200D00A0E1FC0300FA004030E600F020E3A0
S315E630443000F020E300F020E300F020E300F020E394
S315E63044402DE9F04630EE306F00210D464C0063180C
S315E630445026FA03F303F00703023B022B47D840EE76
S315E6304460104F30EE107FC7F3C90307F0070E03F19E
S315E6304470010A0EF1040EC7F34E374FF0FF3CD14634
S315E63044805FEA59090CF1010201D09446F8E713EADE
S315E63044900A0F18BF0CF102020128C2F1200211D12F
S315E63044A003FA02FABC464AEA040A0CFA0EF949EA73
S315E63044B00A0907EE569F1CF1FF3CF6D213F1FF339D
S315E63044C0EED212E0022812D103FA02FABC464AEAE2
S315E63044D0040A0CFA0EF949EA0A0907EE5E9F1CF160
S315E63044E0FF3CF6D213F1FF33EED207EE9A5F013197
S315E63044F00729ABD1BDE8F086002307EE153F07EE78
S315E6304500D53F07EE9A3F07EE953F704770477047BF
S315E6304510704708B50220FFF793FFBDE80840FFF77E
S315E6304520F7BF704708B50120FFF78AFFBDE80840B8
S315E6304530FFF7F7BF08B5FFF7E9FFFFF7F3FF00230D
S315E630454008EE173F08EE163F08EE153F07EE9A3FA0
S315E630455007EE953F08BD704730EE103F012203F077
S315E6304560070304339A4053420340994203D907EE90
S315E63045703E3F1344F9E7002307EE9A3FFFF7EBBFDA
S315E630458008B5FFF7E9FF002308EE173F08EE163FBA
S315E630459008EE153F07EE9A3F07EE953F08BD014414
S315E63045A0FFF7DABF70472DE9F04206460F4630EEA2
S315E63045B0105F05F007052B1D01259D4005F1FF39F6
S315E63045C010EA090F09D00246741E1249124805F060
S315E63045D07FFC63196C421C4000E0044617EA090F7B
S315E63045E007D03A460B490D4805F072FC6B423B4024
S315E63045F000E03B469C4203D207EE364F2C44F9E7C1
S315E6304600002307EE9A3F39463046BDE8F042FFF7DB
S315E6304610C9BF00BF626132E61F6232E6526232E6F7
S315E6304620704708B500F047FE00F06AFFFFF764FF13
S315E630463000F0C3FFFFF76BFFFFF774FFFFF7F0FFFE
S315E6304640002008BD0138FDD1704710B5012404FAC3
S315E630465002F20468013A8B408A4024EA02021343A6
S315E6304660036010BD30B500240134156805408D422F
S315E630467003D09C42F8D1002030BD012030BD000089
S315E630468008B500F033FF002008BD00F04ABF002031
S315E63046907047002070470020704710B500F06CF880
S315E63046A0452825D00CD8372819D040283BD100F0FC
S315E63046B06BF8044600F070F82146024620483AE0A8
S315E63046C04B281ED04C2825D047282CD100F05CF854
S315E63046D0044600F061F8214602461A482BE000F01F
S315E63046E053F8044600F058F821460246164822E0CA
S315E63046F000F04AF8044600F04FF8214602461348E1
S315E630470019E000F041F8044600F046F82146024644
S315E63047100F4810E000F038F8044600F03DF8214640
S315E630472002460C4807E000F02FF8044600F034F86D
S315E630473021460246084805F0CBFB002010BD00BFF7
S315E6304740AF6232E6076332E6846232E6DB6232E64F
S315E6304750336332E65F6332E68B6332E60FF014BCE0
S315E630476008B5034B0348196805F0B2FB002008BDCF
S315E63047708C5E32E6B36332E6024B1868C0F3062047
S315E6304780704700BF440000FF024B1868C0F30310C1
S315E630479001307047440000FF024B186800F00F0006
S315E63047A0704700BF440000FF01480CF0EDBA00BF89
S315E63047B03CDD32E6034A1379DBB203F0FE031371CE
S315E63047C0704700BF00001EE6034A1379DBB243F0BA
S315E63047D001031371704700BF00001EE603207047E1
S315E63047E008B5D8F8043013F0010F074B02D0074A64
S315E63047F0108804E0FFF7F2FF4010013880B201304E
S315E6304800400023FA00F008BD002D3101286033E67A
S315E630481008B5FFF7E3FF0B494010013808800A4830
S315E6304820038A9BB20A8823F0070313430382FFF712
S315E6304830C1FFFFF7C9FF0020002200234860C1E927
S315E6304840022308BD286033E600001EE608B5FFF70A
S315E6304850B1FFFFF7B9FF002008BD0E4B30B5DA6879
S315E6304860D8F804305242002113F0010F10460FD02B
S315E6304870094B5C68A24206D2D3E90245013445F1DA
S315E63048800005C3E902459D68002420435A60294362
S315E630489030BD00BF00001EE6286033E6F7B50024DB
S315E63048A08DE81100FFF79CFF009A27460199A2FB97
S315E63048B0002300FB0130064656EA07010346CDE9FA
S315E63048C0002306D10C4BA2FB03239B0C8DE8180084
S315E63048D003E00A49684618F0EFFE009EFFF7BDFF93
S315E63048E0841941F10005FFF7B8FFA94208BFA04297
S315E63048F0F9D303B0F0BD00BF83DE1B4340420F0061
S315E630490037B50546FFF7A9FF4FF47A74A0FB0423C3
S315E630491004FB0133CDE90023FFF762FF019A00235A
S315E630492013430146009803D11FF024EB009002E0D2
S315E6304930684618F0C1FE0098401B03B030BD4042D1
S315E6304940014BD860704700BF00001EE608B5FFF79A
S315E630495031FF034B0022DA60BDE8084034E700BF9A
S315E630496000001EE600000000000000000000000027
S315E6304970000000000000000000000000000000001B
S315E630498074D09FE507D0CDE380D04DE207D0CDE3B6
S315E63049900D80A0E10000A0E3850100FA44D098E559
S315E63049A007D0CDE3008098E5808048E214E08FE2D8
S315E63049B0480098E500E08EE0440098E50810A0E16E
S315E63049C0342098E5B0FDFFEADDFDFFEB2C009FE5F0
S315E63049D02C109FE50020A0E3010050E10020803551
S315E63049E004008032FBFFFF3A3C0100FA3B0100FB54
S315E63049F00800A0E1341098E508F09FE5FCFF33E6C1
S315E6304A0000000000000000000D4F30E60000000018
S315E6304A10000000000000000000000000000000007A
S315E6304A20033010E200C0A0E12B00001A011481E148
S315E6304A30011881E10130A0E1100052E31C0000BA12
S315E6304A40F0412DE90140A0E10150A0E10160A0E18D
S315E6304A500170A0E10180A0E101E0A0E1600052E34F
S315E6304A601F001CC3080000DA1F800CE2208068E2D3
S315E6304A70082042E0088EB0E1F000AC283000AC48C1
S315E6304A80010118E30180A0E104108C14402052E2C3
S315E6304A90FA41ACA8FA41ACA8FBFFFFCAF081BD08E3
S315E6304AA0200012E3FA41AC18100012E3F000AC181D
S315E6304AB0F041BDE8080012E30A00AC18040012E340
S315E6304AC004108C14020012E30110CC140110CC143D
S315E6304AD0010012E30110CC140EF0A0E1042052E2FC
S315E6304AE0F7FFFFBA020053E30110CCB40110CCD481
S315E6304AF00110CCE4032082E0CBFFFFEA00F020E3AE
S315E6304B0011402DE9042052E2330000BA03C010E228
S315E6304B1000F0D1F53800001A03C011E24200001A5F
S315E6304B201C2052E2E0012DE9130000BA1FC010E264
S315E6304B3020306CE20240D3100300002A48408FE270
S315E6304B40032052E00CF084E000F0D1F5602052E22A
S315E6304B501CF0D1F5020000BA3CF0D1F55CF0D1F5A7
S315E6304B607CF0D1F5F851B1E8202052E2F851A0E8D0
S315E6304B70FAFFFFAA600072E3F9FFFFAA1CC012E251
S315E6304B8020C06CE20CF08F10120000EA00F020E351
S315E6304B90043091E4044091E4045091E4046091E4F5
S315E6304BA0047091E4048091E404E091E40CF08FE043
S315E6304BB000F020E300F020E3043080E4044080E4B3
S315E6304BC0045080E4046080E4047080E4048080E489
S315E6304BD004E080E4DCFFFF2AE001BDE8822FB0E1A5
S315E6304BE00130D1140140D12401C0D1240130C014A2
S315E6304BF00140C02401C0C0241180BDE804C06CE287
S315E6304C0002005CE30130D1C40140D1A401E0D1E435
S315E6304C100130C0C40140C0A40C2052E001E0C0E43B
S315E6304C20EDFFFFBA03C011E2BCFFFF0A0310C1E392
S315E6304C3002005CE304E091E43300000A650000CA52
S315E6304C401C2052E2240000BA1FC010E220C06CE2FB
S315E6304C500240DC100C2042302100003AE0032DE918
S315E6304C6000F0D1F5602052E21CF0D1F5020000BA30
S315E6304C703CF0D1F55CF0D1F57CF0D1F5F000B1E859
S315E6304C802E34A0E1202052E20053B1E8043C83E121
S315E6304C902444A0E1054C84E12554A0E1065C85E197
S315E6304CA02664A0E1076C86E12774A0E1087C87E1FB
S315E6304CB02884A0E1098C88E12994A0E10C9C89E15D
S315E6304CC02CC4A0E10ECC8CE1F813A0E8E9FFFFAAEC
S315E6304CD0600072E3E8FFFFAAE003BDE81CC012E21B
S315E6304CE00700000A2E34A0E104E091E404C05CE259
S315E6304CF00E3C83E1043080E4F9FFFFCA000052E35C
S315E6304D00D5FFFFAA031041E2B3FFFFEA1C2052E2C9
S315E6304D10240000BA1FC010E220C06CE20240DC106C
S315E6304D200C2042302100003AE0032DE900F0D1F5BF
S315E6304D30602052E21CF0D1F5020000BA3CF0D1F523
S315E6304D405CF0D1F57CF0D1F5F000B1E82E38A0E193
S315E6304D50202052E20053B1E8043883E12448A0E14A
S315E6304D60054884E12558A0E1065885E12668A0E1A4
S315E6304D70076886E12778A0E1087887E12888A0E108
S315E6304D80098888E12998A0E10C9889E12CC8A0E148
S315E6304D900EC88CE1F813A0E8E9FFFFAA600072E3DB
S315E6304DA0E8FFFFAAE003BDE81CC012E20700000AEE
S315E6304DB02E38A0E104E091E404C05CE20E3883E1EB
S315E6304DC0043080E4F9FFFFCA000052E3D5FFFFAABC
S315E6304DD0021041E280FFFFEA1C2052E2240000BACC
S315E6304DE01FC010E220C06CE20240DC100C204230DC
S315E6304DF02100003AE0032DE900F0D1F5602052E2D9
S315E6304E001CF0D1F5020000BA3CF0D1F55CF0D1F5F4
S315E6304E107CF0D1F5F000B1E82E3CA0E1202052E25C
S315E6304E200053B1E8043483E1244CA0E1054484E13F
S315E6304E30255CA0E1065485E1266CA0E1076486E1AF
S315E6304E40277CA0E1087487E1288CA0E1098488E113
S315E6304E50299CA0E10C9489E12CCCA0E10EC48CE12E
S315E6304E60F813A0E8E9FFFFAA600072E3E8FFFFAABD
S315E6304E70E003BDE81CC012E20700000A2E3CA0E1C2
S315E6304E8004E091E404C05CE20E3483E1043080E46D
S315E6304E90F9FFFFCA000052E3D5FFFFAA011041E24F
S315E6304EA04DFFFFEA0020704708B50349034805F091
S315E6304EB00FF8002008BD00BF704532E6CA6332E619
S315E6304EC010B54FF416420A210348444603F060FE15
S315E6304ED0A060002010BD00BFD16332E600207047E7
S315E6304EE070477047704770477047704770477047EE
S315E6304EF07047D8F800204FF080419161D8F800200D
S315E6304F00D8F83830D36170470020704708B50C467C
S315E6304F10D8F8043043F00103C8F804301B4B1A685E
S315E6304F201B4B1A60FFF7B1FB1EF09CF90FF0C6FD7E
S315E6304F304FF4A011A4F5A010164C05F01BF9FFF7B7
S315E6304F40E3FF154804F0B4FFD8F800000DF04EFA4A
S315E6304F5006F0DAF808F0B0FF06F085FB05F0A8F8BB
S315E6304F6000F09EF900F0A6F9226810210B4803F00E
S315E6304F700FFE20600FF017F9094804F099FFD8F8CC
S315E6304F8000001CF039FB08F049FBFCE7504030E600
S315E6304F90386033E6A04633E6DA6332E6E26332E693
S315E6304FA0EB6332E608B5024804F082FFFEE700BF5F
S315E6304FB0F36332E62DE9F042802200214046FFF7E0
S315E6304FC030ED2D4B10212D481B68C8F83C30444651
S315E6304FD0D8F8542003F0DCFD6065294C54F8045FBC
S315E6304FE025B1A8470028F9D0FFF7DCFFD8F83830E6
S315E6304FF04FF48041C8F85010D8F8504003F180435A
S315E63050001B1B1B0C1B04C8F84C30D8F83C401C1B49
S315E630501024F47F6424F00F04A4F5A013A3F1200151
S315E6305020A3F1A007C8F80010A3F1B006C8F840709F
S315E6305030D8F80030D8F808201A601EF0D7F91148AB
S315E6305040D8F80030D3F81C9004F032FF29460E4AE1
S315E6305050484618F04DFA0D4B384680221B68C8F89C
S315E630506034404146C8F84460E41AC8F84840BDE8DA
S315E6305070F0421FF08DB800BF4C4030E61D6432E694
S315E6305080143333E62C6432E6FCCE32E6404030E684
S315E6305090D8F8003037B504465B68056E104801939C
S315E63050A003F04EFD38B1102101AA1AF021F8019924
S315E63050B00C4804F00DFF0F2007F076FE0A4804F0A0
S315E63050C007FFFFF7AEFA236F0BB1E26E02E0D8F8D0
S315E63050D000309A6801990020A84703B030BD00BF7A
S315E63050E0346432E63B6432E6606432E6D8F8002071
S315E63050F0D8F8003069469269A1F58051DB691A44E1
S315E6305100521A19F016B97047F0B5044685B04448D8
S315E630511003F016FD236F73B304F19005E16E039346
S315E6305120284607F051FC616EA26E04F178032846F4
S315E63051300093521A04F1740307F0E6FBA0B903AA0A
S315E630514004F16C01284607F069FC68B90121E06E86
S315E630515006F0AEFCE06E06F072FE0123A26F616FDA
S315E6305160E06E06F017FC59E0002857D02D4804F0DB
S315E6305170AFFEFFF717FFD8F800102B4D8E680521E6
S315E630518086E82200294DB360F360336106F11403F5
S315E63051902B60D8F80030B8B1074610F8013B202B23
S315E63051A0FAD08BB1224B3846B36119F047FA394615
S315E63051B00D30800870612868083019F0DBF92B6805
S315E63051C01A6803EB82032B60D8F8002004202B689C
S315E63051D0184983E803009169D960D2699A6003F188
S315E63051E01002616E2A6081B1A26E72B1D8F80040C3
S315E63051F0521A114C203343F8042C0C4A43F80C4C23
S315E630520043F8100C43F8081C13600848FFF77BFF99
S315E6305210002243461B682B685A601A6005B0F0BD1B
S315E6305220776432E6806432E6010041543C6033E628
S315E630523009004154020041540500425470B510F05D
S315E630524030041D4614D110F0400603D01846FFF759
S315E63052505BFF0FE010F08004184603D0FFF718FF27
S315E6305260344607E0FFF750FF2846FFF711FF01E027
S315E63052704FF0FF34204670BD10B5074B446A9C426A
S315E630528004D0064804F014FE012010BD836A0B6094
S315E6305290C36A0020136010BD18286F01A06432E699
S315E63052A0034A0020D8F8403008331360704700BF11
S315E63052B0544030E670470020704708B5014819F08B
S315E63052C0BFFF00BFBD6432E630B5A3B004468022E8
S315E63052D02A4902A8FFF714ECE36A256C28480193BD
S315E63052E0236B0093636BA26BE16B04F0F1FD236AEB
S315E63052F0626AA16A234804F0EBFD236922480093EB
S315E63053006369A269E16904F0E3FD23681F48009307
S315E6305310E1686368A26804F0DBFD002DB4BF4E2178
S315E63053206E2115F0804F14BF5A227A2215F0005FAF
S315E630533014BF4323632315F0805F14BF56207620CF
S315E63053400090134804F0C4FD236C124A22AC12488E
S315E630535013F0800F14BF1146014613F0400F03F0E9
S315E63053601F0308BF02460D4804EB83030C4C00943A
S315E630537053F8803C04F0ACFD23B030BDA04132E6B4
S315E6305380D46432E6196532E63D6532E66D6532E677
S315E63053909D6532E6D06432E660D532E6AD6532E614
S315E63053A0A87F32E608B50446034804F091FD204668
S315E63053B0FFF78AFFFFF781FFCC6532E608B504468C
S315E63053C0034804F085FD2046FFF77EFFFFF775FFBD
S315E63053D0E36532E608B50446034804F079FD20462F
S315E63053E0FFF772FFFFF769FFF76532E608B5044661
S315E63053F0034804F06DFD2046FFF766FFFFF75DFFD5
S315E6305400076632E608B50446034804F061FD2046F1
S315E6305410FFF75AFFFFF751FF516632E608B5044605
S315E6305420034804F055FD2046FFF74EFFFFF745FFEC
S315E63054305B6632E608B50446034804F049FD204685
S315E6305440FFF742FFFFF739FF606632E608B50748F1
S315E630545004F02EFD4CF2503019F01EFAFFF72BFF12
S315E630546000201DF0D9FF002008BD00BF5F6732E699
S315E630547070474FF0FF310020FFF791B8014804F04E
S315E630548017BD00BF6E6732E682B000230193019BFB
S315E6305490632B03DC0046019B0133F7E702B0704726
S315E63054A07047D8F84C3041EA005141F4406143F850
S315E63054B0201070477047F8B500F57F2303F6FF7383
S315E63054C0050D1944D8F84C702E460C0DA64205D279
S315E63054D030461146FFF7E5FF0136F7E707EB84017D
S315E63054E007EB8500BDE8F840FFF74AB808B511EE98
S315E63054F0102FFFF7C9FF42F4805201EE102F08BD98
S315E630550008B5FFF7C1FF11EE102FFFF7BDFF22F406
S315E6305510805201EE102F08BD11EE100FC0F30030A9
S315E6305520704710EE103FC3F30B1340F60742934233
S315E630553010B509D111EE302FFFF7A6FF530603D487
S315E630554042F0400201EE302F11EE102F12F0010438
S315E63055502AD1FEF7EFFF224610461221FFF7A1FFCA
S315E63055600132B2F5805FF7D1D8F80040A269120D64
S315E6305570A169E3690B44B2EB135F05D210461E21EF
S315E6305580FFF78FFF0132F3E7D8F84C3002EE103FE3
S315E63055904FF0FF3303EE103F11EE102FFFF774FF97
S315E63055A042F0010201EE102F11EE102FFFF76CFFDD
S315E63055B042F0040201EE102F10BD10B5FFF764FF7E
S315E63055C011EE104F630707D5FFF75EFF24F00504AB
S315E63055D0FEF79FFF01EE104F10BD11EE100FC0F330
S315E63055E0800070470346084611461847012A70B5CB
S315E63055F0164618DD1C46102254F8040F002119F021
S315E63056003FFD054601460A4804F062FC2246711E15
S315E63056102846FFF7E7FF041C0146064818BF012473
S315E630562004F056FC01E04FF0FF34204670BD00BF73
S315E63056308B6732E6B36732E638B500F1900420463A
S315E630564018F026FE06F05DFF054606F06BFF2946A6
S315E63056500246204618F027FE2046FFF747FD20464D
S315E6305660BDE8384018F0F1BE30F0800210B50AD108
S315E63056701C6E0648214604F02BFC0F2007F094FBFF
S315E6305680D8F80000A047012010BD00BF7A6832E6A0
S315E63056902DE9FF4E1F4630F080038946154652D136
S315E63056A097F82230042B01D0002609E03E6803AB9A
S315E63056B002AA0121304606F0FCFE039B002BF3D00E
S315E63056C0B9F1020F2ADD4FF0000A022455F824001C
S315E63056D0013418F0B3FFA14500F101008244F5D15B
S315E63056E05046043504F040FE4FF0020A4FF0000B08
S315E63056F02023044655F8041F04EB0B00019318F0FB
S315E630570039FF0AF1010A286818F098FFD145019B5E
S315E630571058440AD000F1010B2354EBE70C4803F06A
S315E63057200FFA0C4C002818BF04463D6E0A48294647
S315E630573004F0CEFB0F2007F037FB2346054A314609
S315E6305740D8F80000A847012004B0BDE8F08E00BFC7
S315E6305750776432E6A87F32E6B36832E62DE9F74675
S315E630576007469DF83000894692460A9D9DF82C40BC
S315E63057700D9E019306F038FF014614B1012C1AD07E
S315E630578033E0BD4201D0554504D12B48012404F01F
S315E63057909FFB09E0294804F09BFB4FF48033019ADE
S315E63057A05146284606F0ECFE019B25482B443360ED
S315E63057B004F07EFB20E0234804F08AFB01AB524638
S315E63057C04FF40001284618F017F848B11E4804F0A1
S315E63057D06FFB0E9B33B36FF0050007F0E5FA21E079
S315E63057E0019B04462B44336006E02146174804F015
S315E63057F06FFB6FF002001BE031682846491B8900D3
S315E6305800FEF7CDFE0E4804F053FB072007F0CCFA40
S315E63058105CB94D450BD23368BB4294BF00206FF07E
S315E6305820010005E04FF0FF3002E0002000E02046C0
S315E630583003B0BDE8F08600BFFC6832E60B6932E6B7
S315E63058401E6932E6226932E63B6932E68C6932E631
S315E63058502DE9FF4E17468B4C4FF4987203918246EC
S315E6305860002199462046FFF7DCE8874805F08AFBB3
S315E6305870C4F888002046FFF7DFFE012F02DC834BB3
S315E63058801D6806E010220021D9F8040019F0F8FB6D
S315E6305890054601204FF0000B07F086FA284606F05B
S315E63058A079FFC4F854B0C4F850B00546064606F05B
S315E63058B061FF012845D12946754804F009FB2A6877
S315E63058C0744B9A4205D0744804F0F2FA4FF0FF3042
S315E63058D033E06C4B0220D3F888B007F065FA2846F9
S315E63058E006F0B8FD28B96D4804F0E2FA6FF001002B
S315E63058F023E0032007F058FA284606F089FEBBF186
S315E6305900000F0FD0664804F0D3FA284606F0B7FD06
S315E630591028B9644804F0DCFA6FF002000DE062481C
S315E630592004F0C6FA042007F03FFA697F022973D0FD
S315E63059305E4804F0CDFA6FF0030007F035FA00263C
S315E630594009E0DAF800105E46594804F0C1FA6FF01D
S315E63059506B0007F029FA636D4A4D0BB955481BE0E3
S315E6305960304606F007FF0128824614D1B17F06F1AC
S315E6305970400085F85D10F37F85F85C30327F85F838
S315E63059805E20F3681BBA0344EB6433691BBAAB6536
S315E63059906B6C33B90FE0484804F08AFA4FF0010AE7
S315E63059A06BE0AB690E291BBA2B6606D1296D0B4423
S315E63059B02B66A96503E0414821E002295AD1052A3A
S315E63059C023D1304D4946384605F1680301932A46D8
S315E63059D005F164030093022306F0DFFE08B138488A
S315E63059E00DE005F170034A460193394605F16C033D
S315E63059F0039800932B4607F097F818B1314804F030
S315E6305A0057FA3AE0E86E00F0B5FD0123A664C4F82D
S315E6305A108C304FF0000A30E0052007F0C5F9AB7F51
S315E6305A20022B1AD105F140032365EB681BBA636591
S315E6305A3007E0042B14D1244B002128461A1F06F022
S315E6305A4038FD40222946214818F09DFE06200123DE
S315E6305A502560636407F0A8F97DE7EAD8012B00E014
S315E6305A600E2BDFD0DAF80010194804F031FA6FF071
S315E6305A70040062E70429C8D1A1E7504604B0BDE880
S315E6305A80F08E00BF406033E6AF6932E6A04633E6D5
S315E6305A90B66932E627051956E86932E6FA6932E634
S315E6305AA00F6A32E62A6A32E61E6932E6386A32E644
S315E6305AB0786A32E69B6A32E6BB6A32E6DE6A32E616
S315E6305AC0026B32E6276B32E6946033E6446033E6C1
S315E6305AD0576A32E670472DE9F04E012A92B01E46F5
S315E6305AE081464FF000038A461746089340F3C8804E
S315E6305AF0102209A9706819F0C3FA099B1B78002BA6
S315E6305B0000F0BE803A2B00F0BB80232B00F0B88045
S315E6305B100822AE49706803F0F5FF002800F0AB8046
S315E6305B20C468012C06D1331D7A1E51464846FFF726
S315E6305B308FFE7BE0A64DD5F88C3028469C4203DCBA
S315E6305B40A44804F0C5F996E0234395F85E20C5F8F7
S315E6305B508C30082CA04B53F822905AD005DC022C18
S315E6305B6017D0042C40F08A802FE0202C6BD002DC54
S315E6305B70102C5DD082E0402C70D0802C7ED1FFF7A1
S315E6305B809AFB1DF069FC924B324639462046C847A9
S315E6305B9074E0002304930AAB039390F85D30483003
S315E6305BA08B4D0293037D0193036900930FC8FFF78C
S315E6305BB0D5FD0446002840F00481A96D05F1900034
S315E6305BC00A9A521A18F0B5FBFBE0416E826E804DAA
S315E6305BD0521A05F1780305F19000009305F1740346
S315E6305BE006F092FE0446002840F0EB806A6F0AA87B
S315E6305BF07A4919F018FB0AA9794802F05DFEAA6FD0
S315E6305C0076490AA819F00FFB0AA9764802F054FE3F
S315E6305C10D7E0E96E05F1900006F0D6FE05F17002A2
S315E6305C2005F16C0105F1900006F0F8FE0446C8E091
S315E6305C302046674B32463946C8470446002800F0C8
S315E6305C40C080694814E0624B324639462020C84760
S315E6305C500446002800F0B580644809E020465C4BEF
S315E6305C6032463946C8470446002800F0AA806048DE
S315E6305C7004F02EF9A5E04FF0FF34A2E00024A0E0D0
S315E6305C8033463A4651464846FFF7E2FD0446002893
S315E6305C9040F09680FFF70FFB4D4D079008F068F918
S315E6305CA00123049308AB039395F85D3005F148007C
S315E6305CB0029395F85C300193AB6D00930FC8FFF70E
S315E6305CC04DFD002824DA421C12D0831C17D16B6CAA
S315E6305CD03BB195F82230042B1AD1464804F0E8F861
S315E6305CE016E0454804F0E4F86FF0700007F05CF82B
S315E6305CF033463A4651464846FFF7A8FB08E00330B6
S315E6305D0006D1079B0BB1FFF7D5FA6FF0060043E0F5
S315E6305D10A96D089ADFF8B8B0521A0BF1900018F070
S315E6305D2008FB95F85D30012B1DD1079B0BB1FFF7CC
S315E6305D30C1FA324802F004FF78B1314918F052FC24
S315E6305D40814650B96A6D0AA82E494C4619F06BFA67
S315E6305D500AA92D4802F0B0FD33E02B6E311D781ED0
S315E6305D601BBA98472DE0082007F01EF89BF85E2010
S315E6305D70194B53F8224094B9079B0BB1FFF79AFAC1
S315E6305D8095F85E0006F01DFC95F85E2001461F4844
S315E6305D9004F09EF86FF0070007F006F810E01DF005
S315E6305DA05BFB5B46324639460020A0476FF008007B
S315E6305DB006F0FAFF33463A4651464846FFF746FB83
S315E6305DC00124204612B0BDE8F08E00BF4C3333E6F0
S315E6305DD0406033E64B6B32E6204232E6756B32E6AE
S315E6305DE0796B32E6866B32E6916B32E6B36B32E648
S315E6305DF0D16B32E6F06B32E62A6C32E6716C32E61D
S315E6305E007B6C32E67E6C32E6826C32E68B6C32E660
S315E6305E1073B505460D480E4602F092FE08B90020E7
S315E6305E2012E00B4918F0DEFB04460028F7D1094BA1
S315E6305E30019009481968009604F04AF86B46012243
S315E6305E4021462846FFF747FE02B070BD716C32E652
S315E6305E50B96C32E6A04633E6BD6C32E608B50348A1
S315E6305E6004F026F84FF0FF3008BD00BFEA6C32E6A4
S315E6305E702DE9F042D0B0144681464FF498720E467C
S315E6305E8004A800211D46FEF7CCED04A8FFF7D4FBA7
S315E6305E90012C03DC264B1B681C9305E010220021FF
S315E6305EA0686819F0EDF81C9003AA02A91C98FFF76A
S315E6305EB0E3F9002838D1029B28A8039A1C99D21A0E
S315E6305EC018F037FA1EAB04AA019329461DAB2046D5
S315E6305ED00093022306F061FC08B116480CE020ABCD
S315E6305EE02A46019321461FAB3046009304AB06F0B3
S315E6305EF01BFE074618B1104803F0DAFF14E01F9888
S315E6305F0000F038FBFFF7D7F908F032F81DF0A4FABF
S315E6305F1004AB2A4621463846FFF790F92B46224609
S315E6305F2031464846FFF792FA012050B0BDE8F08296
S315E6305F30A04633E6026B32E6276B32E610B5044608
S315E6305F400A4918F04FFB68B10949204618F04AFB72
S315E6305F5050B10849204618F045FB003018BF0120FD
S315E6305F60404210BD022010BD012010BD916D32E6D3
S315E6305F7060D532E6D06432E6014803F099BF00BF19
S315E6305F80976D32E6012A10B513D0022A1CD158682D
S315E6305F90FFF7D4FF0128044605D0022806D0B0B96B
S315E6305FA0FFF7AEFA14E0FFF7A1FA10E0FEF7A4FA2F
S315E6305FB00DE0FFF7B1FA074B0749002808BF194647
S315E6305FC0064803F085FF02E04FF0FF3400E0002498
S315E6305FD0204610BDCA6D32E63FD132E6CE6D32E6A8
S315E6305FE0014803F065BF00BFE76D32E6012A10B51A
S315E6305FF013D0022A1CD15868FFF7A0FF01280446C1
S315E630600005D0022806D0B0B9FFF7D7FA14E0FFF785
S315E630601088FA10E0FEF77DFA0DE0FFF7DEFA074B79
S315E63060200749002808BF1946064803F051FF02E043
S315E63060304FF0FF3400E00024204610BDCA6D32E64C
S315E63060403FD132E6156E32E62DE9F04E9CB0144677
S315E63060508A4604902920039306F0A6FE032C06DD35
S315E63060606FF029004FF0FF3406F09EFEA0E02A20BE
S315E630607006F09AFE012C07DD039B102200215868B4
S315E630608018F0FEFF054600E04B4D2B2006F08CFE61
S315E6306090032C18BF00214FF0010408BF039B07AA63
S315E63060A0504608BF996808AB00940AF083F9B0F118
S315E63060B0000902DA6FF02B0020E0079B2C205E68A1
S315E63060C006F072FE514613AB3C48019332460BABB3
S315E63060D000934B4603F0FCFE079B22460899304672
S315E63060E0D3F864A02B46D0470128824609D04A46E3
S315E63060F03146334803F0ECFE6FF02F0006F054FEDF
S315E630610056E0302006F050FE284606F033FB0128EE
S315E6306110044633D1312006F047FE284606F09AF992
S315E630612028B9284803F0C4FE6FF03100E6E732209E
S315E630613006F03AFE284606F06BFA0A9BE86803F163
S315E63061403F0200BA1946104405931DF014EF079A3C
S315E63061500899536E01311F46059B2B4400F1FF3BF0
S315E6306160824630465A46B847834510D04A46314687
S315E6306170134803F0ADFE6FF03200BFE76FF0300044
S315E6306180544606F011FE104803F092FE10E0332036
S315E630619006F00AFE0A99284601FB0AF1FEF7FFF9F0
S315E63061A00A4B04981D60039B1968FFF731FE0446D7
S315E63061B020461CB0BDE8F08EC07F0040136F32E655
S315E63061C0576F32E66F6F32E68B6F32E6A04633E6CE
S315E63061D013B50224009415F029FF02B010BD13B5AD
S315E63061E00224009415F0C2FF02B010BD052A2DE94F
S315E63061F0F0461D4699B003DC03F0C4FC04463AE0AB
S315E6306200012404AB009403AAA96868680AF0D2F8B8
S315E6306210B0F1000A2FDB039B10220021E8682C69D7
S315E6306220D3F8049018F02CFF0A2200210646686956
S315E630623018F026FF04A90746039812F0E9F90598FF
S315E630624012F0A4F930B953464A4669680C4803F069
S315E63062503FFE0DE020463A46314612F0CBFC044688
S315E630626018B1084803F034FE02E011F059FF02E0B7
S315E630627011F056FF0124204619B0BDE8F08600BF7E
S315E6306280A26F32E6BF6F32E613B50124009415F0FD
S315E6306290CDFE02B010BD13B50124009415F066FFAD
S315E63062A002B010BD012AF0B51D4699B004DC11489E
S315E63062B003F00EFE00201AE0012404AB009403AA94
S315E63062C0A96868680AF076F8071E0FDB039804A912
S315E63062D0466815F036F830B13B46324669680648C8
S315E63062E003F0F6FD02E015F041FC00E0204619B079
S315E63062F0F0BD00BFCC7132E6F77132E62DE9F046F5
S315E6306300042A99B01D464FF00003039303DC03F0ED
S315E630631039FC044639E0012604AB009603AAA9689F
S315E630632068680AF047F8B0F100092DDB039804A94E
S315E6306330476815F006F8044630B14B463A46696882
S315E6306340144803F0C5FD1FE001461022E86818F050
S315E630635097FE102221468246686918F091FE51462C
S315E63063600246286915F08BFC431C014608D1CDF868
S315E630637000903B466A682969074803F0A9FD03E0C1
S315E6306380064803F0A5FD00E03446204619B0BDE8E0
S315E6306390F08600BF227232E64E7232E6797232E625
S315E63063A0C1B1431813F8013C0BB10A2B12D10D4A91
S315E63063B010F8013B3BB1D35C13F0B7030AD00029A2
S315E63063C008DD0139F4E7002908DD012904D0037830
S315E63063D0002BF6D100207047084670470CBF0120E7
S315E63063E000207047985332E638B51B4D2C6824B9F1
S315E63063F01A4803F06DFD204638BD204615F0D8FE26
S315E6306400041E25DA16F032FE0146154803F060FD25
S315E63064100A3419D12B68596909BA0F2905D81022D9
S315E6306420104803F055FD00232B602A6893691BBAA2
S315E6306430112B0FD9516911220B4809BA03F048FDE1
S315E6306440054B0020186038BD084803F041FD01E0F1
S315E6306450012038BD002038BD706133E61C7632E661
S315E6306460477632E6657632E67D7632E6FCCE32E65B
S315E63064702DE9F84606460C46002963D0FFF790FF2D
S315E63064800546E8B13048002503F012FDA54212DA9A
S315E6306490002D02DD2D4803F00BFD3046013503F0C5
S315E63064A007FD304618F0CAF80544304618F0C6F807
S315E63064B001300644EAE72448BDE8F84603F0F8BC7E
S315E63064C0A30725D1402C06DD224631462048BDE8D5
S315E63064D0F84603F0FDBC1F48002503F0F9FC002C16
S315E63064E0B8BF0334DFF87C90DFF884A0A410671ECB
S315E63064F0A5420BDA56F82510BD42ACBF4A4652469F
S315E63065001548013509BA03F0E3FCF1E7134815E01F
S315E6306510402CD9DC124803F0DBFC124FDFF8509002
S315E6306520AC420ADD621E715D9542ACBF3A464A46DA
S315E63065300D4803F0CDFC0135F2E70C48BDE8F846E8
S315E630654003F0C6BCBDE8F886987632E6957632E64E
S315E63065509A7632E6AA7632E6AC7632E623D332E677
S315E6306560B57632E6A87F32E6B77632E631D832E627
S315E6306570CED932E67FB50246064B0749186001A802
S315E630658018F051FE01A9054802F096F907B05DF814
S315E630659004FB00BF706133E6756B32E6BE7632E6F3
S315E63065A0012A2DE9F04E924696B01F4640F35581C4
S315E63065B058680378612B37D1022A07D1FFF714FFE3
S315E63065C0002838D0A64BA748196829E010220021C2
S315E63065D0B86818F055FDFFF7CDFFFFF705FF50B366
S315E63065E0BAF1030F00F0458410220021F86818F05E
S315E63065F047FD9B4B19684A6812BA904205D2014666
S315E6306600994803F065FC00F034BC0246084616F0BD
S315E63066109AFC002800F02D8416F028FD01469348B2
S315E630662003F056FC00F025BC8D4D2B682C4633B96D
S315E63066308F4803F03DFC4FF0010900F01CBC022206
S315E63066408C4917F0DCFF8146002838D1BAF1030FC2
S315E630665040F3038101461022B86818F011FD286030
S315E6306660FFF7C2FE0028E6D010224946F86818F051
S315E630667007FDBAF1040F064603D12B685B681BBAF1
S315E63066800FE010224946386918F0FAFC2A68526853
S315E630669012BA90420146034603D2774803F018FC15
S315E63066A0C9E71A463146206816F04DFC20B116F099
S315E63066B0DDFC01466D486CE2694B1E60DBE3022287
S315E63066C06E49786817F09BFFB8B9BAF1030F40F315
S315E63066D0C480B9682868FC6816F01CF8011EC0F25A
S315E63066E054822246286816F007FC002880F2C183D9
S315E63066F016F0BCFC014662484BE278680378732BA9
S315E630670040F0A280BAF1030F40F3A780BB68BAF136
S315E6306710040F0393FB6804937FD03B6907F11009B6
S315E6306720AAF1040A0A931A783C2A2DD10DF1580BB0
S315E6306730002501334BF8303D231D2E460A9F397826
S315E63067403E296BD0B24540F3928321B9013659F8EA
S315E630675026200A92F2E7002259463846059318F083
S315E63067608FFC0A9A059B0435D21B002A00BA43F8F9
S315E6306770040B02DC394643480BE20A9A11782029A3
S315E6306780DCD101320A92F8E75B2A2FD10DF1580BAC
S315E6306790013300253C4F4BF8303D3C4B2E460A9AAA
S315E63067A012785D2A1CD00A980278202A02D1013066
S315E63067B00A90F8E722B9013659F826200A920DE012
S315E63067C09A5C059312F0440F0AD01022594618F017
S315E63067D057FC059B0135013707F8010CB245DEDC7F
S315E63067E00A9B19785D2940F0428317E00025DFF8E9
S315E63067F098902E460A98013617F020FF0A9900F14E
S315E6306800010B484617F0B6FE07EB8603B245D94488
S315E63068101B695D440A93EDDC00E0002503992068A8
S315E630682015F078FF0E4E011EC0F2AF810095331D8E
S315E6306830049A306816F07DFA002880F21A8316F04C
S315E630684015FC01461248A4E1672B40F0C780BAF141
S315E6306850040F4FF0000307931CDC4FF0FF390AE3D1
S315E6306860706133E6DF7632E6FD7632E62C7732E66F
S315E6306870487732E6B87732E6BB7732E6EE7732E617
S315E6306880177832E6357832E6746133E6985332E68F
S315E6306890717832E6BAF1050FBE6802D13378732BDA
S315E63068A0DBD139692068FD68D7F8149015F032FFE8
S315E63068B0B0F1000BC0F2698133786E2B04D0732BBE
S315E63068C047D1BAF1050F44D15946206816F00FF88C
S315E63068D00DF15809594649F8380D82464A46206838
S315E63068E015F008FD33786E2B834606D1102200214B
S315E63068F0786918F0C5FB034601E04FF0FF334FF0F9
S315E6306900FF370AF101020392089A924519DA03999A
S315E63069108A42327808BF01376E2A08D19F4206D1BD
S315E630692059460022206815F005FE014642E05946F2
S315E63069304A462068049315F0DDFC049BB0F1000B63
S315E6306940E2DA3378732B02D17A1CA14942E0A148C8
S315E6306950BBE04A4607AB5946206815F095FEDDF8AA
S315E63069601C90B9F1000F074604D19B49284601F041
S315E6306970A3FF80E26CDD3378762B21D14946FFF7EB
S315E63069800FFD08B1394615E0B9F1040F01D13A6881
S315E63069901FE019F0030411D1B9F1140F0EDC0AAB7E
S315E63069A03A5903EB44008D49043418F03CFCA145D2
S315E63069B0F5DC0AA9284601F07FFF5AE2884884E0EA
S315E63069C0612B02D10246874904E0732B7FF445AF4B
S315E63069D04A4685490AA818F026FCEAE7702B04D021
S315E63069E06C2B40F0C580012600E02026BAF1020F76
S315E63069F006D0BAF1030FD7F808B003D0FD6802E047
S315E6306A00DFF830B200255946206815F083FE071EBA
S315E6306A10C0F2BB80F5B175480AAB2A4639460068FE
S315E6306A2015F032FEDDF82890B9F1000F044605D1AF
S315E6306A302A4659466E4803F04BFA1CE208DD2946EB
S315E6306A406C4803F045FA0A992046FFF711FD44E112
S315E6306A5048465CE0DFF8E091394608AA206815F04A
S315E6306A60E2FB431E0146082B78D801A252F823F002
S315E6306A70956A30E6D16A30E6ED6A30E64F6B30E657
S315E6306A805D6B30E65D6B30E65D6B30E65D6B30E672
S315E6306A90376630E600223946206815F04BFDAE42C1
S315E6306AA00FDB554BC5F120014944002808BF18468F
S315E6306AB0524B0278002A14BF02461A46504803F073
S315E6306AC007FA01351F2D4EDD4E4803F001FAB2E5E1
S315E6306AD0013DAE4247DBC5F120014B48494403F060
S315E6306AE0F7F9002D08BF4FF0FF353CE00C2239466A
S315E6306AF0206815F083FB81680746206809BA15F0E9
S315E6306B009AFC7B68024618BA00280A9004DA16F030
S315E6306B10ADFA01463D483CE008D1AE4223DBC5F14D
S315E6306B2020013B48494403F0D3F91CE0AE421ADB78
S315E6306B30C5F120013748494403F0CAF907F10C009C
S315E6306B400A99FFF795FC344803F0C2F90BE0C5F134
S315E6306B5020013248494403F0BBF904E0AE42FFF681
S315E6306B606AAD2F4815E06B1C089F7FF475AF80E160
S315E6306B7002222C4917F043FD00285FD1B968206818
S315E6306B8015F0C8FD194D011E06DA16F06FFA014604
S315E6306B90254803F09DF94EE5BAF1030F0CDDFA68A8
S315E6306BA0286816F03FF9B0F1000980F2628116F0F6
S315E6306BB05DFA01461D4826E1286816F0ACF9B0F1D3
S315E6306BC0000980F2568116F051FA014618481AE164
S315E6306BD05ABE32E68B7832E6A87F32E6EE7F32E68A
S315E6306BE0A97832E6C37832E6A27832E6706133E6E1
S315E6306BF02C9A32E6157932E6C67632E6DD7632E636
S315E6306C00E27832E6EA7832E6067932E6C87832E68D
S315E6306C100C7932E6137932E6107932E61B7932E6CA
S315E6306C20287932E672AF32E6F17732E63C7932E609
S315E6306C30577932E6643933E6663933E67868037887
S315E6306C40682B4ED12B688E488E4E19685D6909BA27
S315E6306C5003F03EF923688C482DBA5A6812BA1146C3
S315E6306C6003F036F923688948996809BA03F030F9AA
S315E6306C7023688748D96809BA03F02AF9236885482C
S315E6306C80196909BA03F024F92946834803F020F94D
S315E6306C9023688248996909BA03F01AF9012D15D99C
S315E6306CA033687F48D96909BA03F012F9022D0DD057
S315E6306CB033687C48196A09BA03F00AF9102D05D902
S315E6306CC033687948596A09BA03F002F9206815F04B
S315E6306CD0D3FB0146754803F0FBF8754803F0F8F840
S315E6306CE0C7E00322734917F08AFC814640B901466C
S315E6306CF01022B86818F0C4F92B6800BAD861BAE041
S315E6306D0002226D49786817F07AFC0546A8B9102252
S315E6306D100146B86818F038FA102282468B46F8688B
S315E6306D20294618F031FA52465B46CDE9000120682D
S315E6306D3005F07AF800EAE0799DE002225F49786864
S315E6306D4017F05DFC8146002860D1BB681B78702B56
S315E6306D5029D120684D4615F08FFB0646584803F094
S315E6306D60B7F8584803F0B4F8B54280F284800AABF7
S315E6306D7008AA2946206815F063FB071E07DA16F0DF
S315E6306D8075F9B9460146504803F0A2F873E00A9B16
S315E6306D902946099A01354D4801930B9B0093089B8A
S315E6306DA003F096F8E0E7612B1AD110220146F8682F
S315E6306DB018F0EAF9102282468B463869494618F0C9
S315E6306DC0E3F952465B46CDE90001206815F041FF0E
S315E6306DD0B0F100094DDA16F049F901463C4812E0C1
S315E6306DE0642B7FF43AAD01461022F86818F048F97C
S315E6306DF00146206815F056FFB0F1000939DA16F08B
S315E6306E0035F90146334803F063F834E078680378B9
S315E6306E10632B20D1BAF1020F10D0BAF1040F7FF40A
S315E6306E201CAD10220021B86818F02AF9102200218C
S315E6306E300646F86818F024F9054601E000252E46A0
S315E6306E400121206804F034FE01232A4631462068C3
S315E6306E5004F0A0FD0DE002221F4917F0D0FB814673
S315E6306E6000287FF4FAAC206805F050F803E01B48BA
S315E6306E708FE64FF00009484616B0BDE8F08E00BF03
S315E6306E80737932E6706133E6827932E6997932E6BB
S315E6306E90AF7932E6C67932E6DD7932E6EB7932E655
S315E6306EA0027A32E6197A32E6307A32E6477A32E6EC
S315E6306EB0FCCE32E65E7A32E6D3D532E6627A32E630
S315E6306EC0657A32E6807A32E6B27A32E6D17A32E6F6
S315E6306ED0EB7A32E60A7B32E6908132E6567832E66D
S315E6306EE037B5074D074C8DE80C000B46641B064953
S315E6306EF002462846E410614302F062FE03B030BD36
S315E6306F000000000000000000ABAAAAAA2DE9F04E68
S315E6306F100027DFF838A1ADF5507D4FF0FF353E4618
S315E6306F2002900DF59C7BCFACD94602F097FFDAF8A6
S315E6306F300010C2B221B11046039202F0A9FF039ABD
S315E6306F40032A74D002DC002A71D009E00A2A01D07D
S315E6306F500D2A05D10022C9EB0B048BF8002013E08D
S315E6306F600BF8012BD8F858205168344A914206D1AD
S315E6306F705C45DAD100232370C9EB040404E002F061
S315E6306F80CEFF0028F4D052E0002C50DB0EAB05AA3B
S315E6306F9004A9484606F08BFE002848DB0138082867
S315E6306FA035D8DFE800F0050505343434181818000E
S315E6306FB0029B0EA9059C049A1C442046FDF7A0EDDB
S315E6306FC0049BA54203F1FF3328BF25461C44A6425F
S315E6306FD038BF26461BE0741C42F21070641B17F06D
S315E6306FE05BFC3246294623460094154802F070FF8C
S315E6306FF021462846FDF7D3FA2246124906A818F066
S315E630700012F906A9104801F057FC059811E00F4B26
S315E63070101B68002B85D10137642138461DF07CE8A4
S315E630702000297FF47EAF2E2002F032FF79E74FF06B
S315E6307030FF300DF5507DBDE8F08E00BF5D9E30E643
S315E6307040E87B32E67E6C32E6826C32E6643F33E6E5
S315E630705038B515461C481C4601F072FD1B4920B171
S315E63070600378312B01D1012300E00023022D0B609A
S315E630707006D160681022002118F05BF8044600E07D
S315E63070800024134802F024FF2046FFF73FFF64242E
S315E6307090054602F0F0FE08B102F0E0FE4FF47A70F3
S315E63070A017F0FAFB013CF4D16B1C04D1094802F027
S315E63070B00FFF012038BD2946074802F009FF074B86
S315E63070C020461D6038BD00BF4D7C32E6643F33E670
S315E63070D0587C32E67C7C32E69A7C32E6A04633E66B
S315E63070E073B50E46144601A90022054618F021F876
S315E63070F0019B9D420246306002D14FF0FF3013E0ED
S315E630710019782D290AD1581C01905B7833B10022C3
S315E6307110114618F00EF82060002005E0019B1B783A
S315E6307120002BEAD11846226002B070BD012A2DE95D
S315E6307130F04E8A4696B091461F4602F1FF3540F349
S315E63071400B81884C5B6893F800B0236808936368D4
S315E63071500993A3680C93E3680D9323690A936369ED
S315E63071600B93238B029306F067FC1AF0010F18BFD8
S315E630717094F81CB0BBF1720F064612D0BBF1770F0E
S315E630718040D1012D68DD1022002157F82500A9F1FE
S315E6307190020917F075FFB9F1010F83B202935BDD91
S315E63071A002E0012D58DDA94609F1FF3557F8299059
S315E63071B02E21484617F04AFA0390B8B1C9EB000AD1
S315E63071C049460EA8524617F0DDF916AB9A440DAA93
S315E63071D00CA90EA800230AF8203CFFF781FF002809
S315E63071E040F0BA80039B03F1010903E04FF0FF3329
S315E63071F00D930C930BAA0AA94846FFF771FF0028B0
S315E630720040F0AA80012D21DDAB1E013D012B00F2B7
S315E6307210A380022DB86809D106F002FB064600289F
S315E630722000F09A8009AA08A9F8680AE006F00AFC8E
S315E630723020B1436B06680993089307E0B86809AA54
S315E630724008A9FFF74DFF002840F08680BBF16C0FAA
S315E630725002D106F093FB7DE006F10807384606F0E4
S315E6307260BFFB099BBBF1720F089D03930C9B0493FE
S315E63072700D9B059325D0BBF1770F5BD10A9B069321
S315E63072800B9B0793039BAB4254DBDDF81090059BD3
S315E63072904B4514DBDDF818A0079B53450CDB029B08
S315E63072A04A462946304600935346376BB847002858
S315E63072B040D10AF1010AEFE709F10109E7E70135BD
S315E63072C0E0E70A9B3946284806930B9B079302F07C
S315E63072D0FFFD039BAB422DDB2946244802F0F8FD41
S315E63072E0DDF81090059B4B4522DBDDF818A0079BB1
S315E63072F053451ADBF76A53464A4629463046B84777
S315E6307300071E03DA1A4802F0E3FD13E0B9F1000F7F
S315E630731003DB4946174802F0DBFD5146BAB216485A
S315E63073200AF1010A02F0D4FDE1E709F10109D9E7EC
S315E63073300135CEE7089B84F81CB02360099B636071
S315E63073400C9BA3600D9BE3600A9B23610B9B6361F9
S315E6307350029BA361002001E04FF0FF3016B0BDE896
S315E6307360F08E00BF746533E6267D32E63B7D32E647
S315E6307370E2C732E64F7D32E6537D32E62DE9F0421C
S315E63073801D46D31E9146012B2ED80421286802F0DD
S315E630739095FC061E2CDD10220021686817F070FE7B
S315E63073A0154B102200211C680444A86817F068FEC5
S315E63073B0B9F1040F074605D110220021E86817F027
S315E63073C05FFE05E0012003E0042E05D12760344454
S315E63073D010F1FF30F8D204E0022E0CBF278027707A
S315E63073E0F5E70020BDE8F0824FF0FF30BDE8F082E9
S315E63073F00120BDE8F08200BF946533E6022A70B517
S315E63074001E4637DD0421186802F058FC051E34DBCB
S315E630741010220021706817F033FE10220021044650
S315E6307420B06817F02DFE012809D1042D01D1236865
S315E6307430FDE7022D01D12388FDE72378FDE7042D0C
S315E630744007D12246034613F1FF33FAD311680432E5
S315E6307450F9E7022D07D12246034613F1FF33FAD375
S315E630746011880232F9E7204423468342FCD01A7863
S315E63074700133FAE74FF0FF3070BD012070BD2DE9DC
S315E6307480F34E012A204F92469B46D7F8009033DDDD
S315E630749011F0010603D01D4B5C689D6818E00421A7
S315E63074A0186802F00BFC051E29DB10223146DBF8A4
S315E63074B0040017F0E5FD154BBAF1020F1C680444DB
S315E63074C006D010223146DBF8080017F0D9FD8146A2
S315E63074D0294610201CF0B2ED21464B462A4600904E
S315E63074E0204605FB094416F073F8084BC7F80090BA
S315E63074F000209D605C6003E04FF0FF3000E0012045
S315E630750002B0BDE8F08E00BF683F33E6946533E6F9
S315E6307510042A2DE9F042994686B055D111461868C7
S315E630752002F0CCFB061E52DB042E05D02A4B2B4F3F
S315E6307530022E18BF1F4600E0294F10220021D9F847
S315E6307540040017F09DFD274C00212268851810228D
S315E6307550D9F8080017F094FD246810220021044477
S315E6307560D9F80C0017F08CFD2A460025C4EB020E3E
S315E6307570C2EB040C85421FD0042E02D11368216873
S315E630758007E0022E07BF138821881EF804301CF860
S315E630759002108B420CD004913946029401248DE8D0
S315E63075A0880033460396104802F092FC284604E0FB
S315E63075B0324434440135DDE7002401463A460B4889
S315E63075C002F086FC204603E04FF0FF3000E0012073
S315E63075D006B0BDE8F08200BFA87E32E6AD7E32E682
S315E63075E0B17E32E6946533E6B67E32E6E87E32E65C
S315E63075F0012A10B5064C05DD10220021586817F031
S315E63076003FFD20602168034802F062FC002010BD91
S315E6307610946533E60A7F32E6042AF8B51F4633D157
S315E63076201146186802F04AFB061E30DB10220021AE
S315E6307630786817F025FD174C002122688518102248
S315E6307640B86817F01DFD236810220021C418F868C3
S315E630765017F016FD10B123462A1B08E00E4802F055
S315E630766027FC14E0042E06D1D1581960334410F1C4
S315E6307670FF30F7D206E0022E0BBFD15AD15C198025
S315E63076801970F3E70020F8BD4FF0FF30F8BD012062
S315E6307690F8BD00BF946533E6217F32E6022A2DE94E
S315E63076A0F04291461E4626DD10220021586817F034
S315E63076B0E7FC144B102200211C680444B06817F02E
S315E63076C0DFFC4FF48033214602460546002015F0AE
S315E63076D0F3FE6A1E22442146034607460A4802F06E
S315E63076E0F7FBB9F1030F0AD010220021F06817F044
S315E63076F0C7FC076003E04FF0FF30BDE8F0820020BC
S315E6307700BDE8F082946533E6327F32E6012A2DE92A
S315E6307710F34E16461D466ADD10220021586817F0EC
S315E6307720AFFC022E009065D010220021A86817F033
S315E6307730A7FC032E019060D010220021E86817F0EE
S315E63077409FFC042E044606D010220021286917F045
S315E630775097FC814601E04FF0000901260025B24646
S315E630776002F0DDFB20B10A2002F092FB012047E071
S315E6307770B9F1000F0BD0CA4509DD2A460AF1FF31C9
S315E6307780214802F0A5FB281C18BF012038E01F4A25
S315E630779021461F4802F09CFB009B224601998B420C
S315E63077A003D243F8042B3244F8E71A48A34602F0EC
S315E63077B07FFB009F019B9F420FD23A68934509D0E3
S315E63077C05B4639461448013502F082FB02F0A7FBE8
S315E63077D00028C8D1B3440437ECE7002C0AF1010A95
S315E63077E0B8BF6442C6F10006A8BFE443B8E74FF037
S315E63077F0804300934FF0BF4301930024A146ACE7A4
S315E630780002B0BDE8F08E00BF577F32E6A87F32E69B
S315E6307810807F32E6A97F32E6B47F32E6022AF7B5D2
S315E630782006461F4648D111F0010403D02A4BDC68E0
S315E63078301D690DE00421186802F040FA051E3EDBAC
S315E630784021461022786817F01BFC234B1C6804444B
S315E63078502146224802F03CFB042D02D1216820481D
S315E630786005E0022D07BF21881E4821781E4802F022
S315E63078702FFB1E4805F058FD38B301281C4F02D1C0
S315E63078803B782D2B1DD0102201A9194817F0F8FBAD
S315E6307890019BDB1B0BD0042D01D1206003E0022DCA
S315E63078A00CBF2080207006B12C44002BD0D10A4B79
S315E63078B00020DC601D610DE04FF0FF300AE001206C
S315E63078C008E0002EC4D06B4202E0002EC0D02B4634
S315E63078D01C44BDE703B0F0BD946533E6E67F32E699
S315E63078E0ED7F32E6F37F32E6F97F32E6FF7F32E648
S315E63078F0DC7A33E6012091E700208FE737B50D468F
S315E6307900144601A9102217F0BBFBC3B201982B70BF
S315E630791002782D2A07D1013010220021019017F086
S315E6307920AFFB207000E0237003B030BD012A2DE9AD
S315E6307930F04E164698B01D4602DC4FF0FF3047E271
S315E6307940A04B11F001041A788DF850205A788DF84C
S315E630795051205A688DF84A209A688DF84B20DA68B5
S315E63079608DF84C201A695B698DF84D20ADF85230AA
S315E630797027D1686803788DF8503016F05FFE012817
S315E630798091BF8DF851406B685B788DF85130022E99
S315E630799017D00DF14B020DF14A01A868FFF7AEFF9D
S315E63079A0032E0ED00DF14D0213A9E868FFF7A6FFB8
S315E63079B0042E06D010220021286917F061FBADF8B7
S315E63079C0520006F069F89DF85030692B814646D16B
S315E63079D0022E7D4F7D4E0BBF1F259DF84A40002473
S315E63079E09DF84B50AC4238D80DF14F0315AA0093AB
S315E63079F021460DF14E03484606F0A2F850BB159ADD
S315E6307A00214648469DF84EA09DF84FB0079206F0BF
S315E6307A10C5F821460690484606F020F92146002864
S315E6307A2014BF33463B464846059306F0E7F8684BBF
S315E6307A306849CDF800B0079A2C280CBF0846184698
S315E6307A40059B0390214664480293069B0193534671
S315E6307A5002F03EFA0134E4B2C4E70024A1E1722B27
S315E6307A6048D19DF84A5000249DF84B30AB42C0F0E1
S315E6307A7098819DF84C609DF84D309E422AD818ABD9
S315E6307A804FF6FF722946484623F80E2D324606F063
S315E6307A900BF830B1324629465048012402F018FA3E
S315E6307AA015E09DF84A209DF84B309A4205D19DF86F
S315E6307AB04C209DF84D309A4204D032462946484805
S315E6307AC002F006FABDF85210464802F001FA0136DF
S315E6307AD0F6B2D0E79DF84A109DF84B20914206D093
S315E6307AE09DF84C209A4202D03F4802F0F1F9013532
S315E6307AF0EDB2B9E7772B21D19DF84A5000249DF8AF
S315E6307B004B30AB42C0F04D819DF84C609DF84D3020
S315E6307B10B34210D3BDF8523032462946484605F0D0
S315E6307B20D7FF28B1324629463048012402F0D0F94B
S315E6307B300136F6B2EAE70135EDB2E0E702222C4944
S315E6307B4014A816F05CFD002840F01A819DF84C30FA
S315E6307B50052B03D89DF84D30052B04D9254802F080
S315E6307B60B7F9012034E19DF84AA00446012309938A
S315E6307B709DF84B305345C0F014819DF84C509DF836
S315E6307B804D30AB420A9313DB15AB2A4603EB45037E
S315E6307B905146484605F088FF38B101242A46514613
S315E6307BA00E4802F095F9002309930135EDB2E6E782
S315E6307BB0099B0BBB0C4802F08BF90AF101035FFA1D
S315E6307BC083FAD5E7A86533E6DF8232E6B79732E65B
S315E6307BD0B68232E6B28232E6E58232E62C8332E6A7
S315E6307BE05B8332E6748332E6FCCE32E67A8332E67D
S315E6307BF0A78332E6AA8332E69DF84C304FF0000B87
S315E6307C000D930D9B5B4500F2B4800A9B5B45C0F055
S315E6307C10B08015AB704833F81B504FEACB03089368
S315E6307C206E4B089A33F83B3005936C4B0599134403
S315E6307C302A465B6802F04CF9C5F300230C93684A92
S315E6307C40684B0C99002908BF1A46C5F38013109283
S315E6307C500E93C5F34033089A0F93634B134411934F
S315E6307C6000230693119B069A9B889A427ED2069B00
S315E6307C700C27089A5D485F435B4BD358DE1907936A
S315E6307C80B388718803FA01F105EA01030B9389B2E9
S315E6307C90059B0B9A02F01CF9059B718803BB0629F6
S315E6307CA016D105F40153402B07D05149514AB3F565
S315E6307CB0005F0CBF13460B4600E04F4B01930D2297
S315E6307CC00F9B06214D4800930E9B02F001F947E0E3
S315E6307CD0082931D1109B0C9A494802F0F9F83FE071
S315E6307CE0059B042B11D139BBB388079A2B40012B60
S315E6307CF0D15B05D04348444A022B18BF024600E022
S315E6307D00424A00920022424813E0059B052B13D1E6
S315E6307D1091B9B388079A2B40012BD15B05D0394808
S315E6307D20394A022B18BF024600E0384A39480092F3
S315E6307D30002202F0CDF813E0079B7288D95B9142B8
S315E6307D4003D1354802F0C4F802E0344802F0C0F810
S315E6307D500B9B7188B2680B413148194602F0B8F888
S315E6307D60304802F0B5F8069B01337AE72D4802F043
S315E6307D70AFF80BF1010BBBF1060F7FF442AF19E713
S315E6307D800222294914A816F03AFC044600287FF464
S315E6307D90D4AD022E02D105F0ADFE02E0A86805F0BC
S315E6307DA01FFE224B20469DF850201A709DF8512032
S315E6307DB05A709DF84A205A609DF84B209A609DF895
S315E6307DC04C20DA609DF84D201A61BDF852205A6192
S315E6307DD018B0BDE8F08E00BFEE8332E66C4232E68E
S315E6307DE0188432E61D8432E69C4232E6228432E656
S315E6307DF0BE8232E6BA8232E65AB032E6368432E6C7
S315E6307E00658432E6E18232E6CC8232E6C18232E619
S315E6307E10818432E6A08432E6C28432E6C98432E62A
S315E6307E20D18432E6FCCE32E678D332E6A86533E65E
S315E6307E30012A2DE9F34E17461C4640F3E480994D68
S315E6307E402B68002B08DA0AF0CBFA002802DD00238D
S315E6307E502B6001E094482EE09449606816F0C2FB48
S315E6307E60064668B9286809F048FC10B98D4B19689A
S315E6307E70C4E046630AF072F9061C18BF01260CE127
S315E6307E8004228B49606816F0BAFB0646B0B9286814
S315E6307E90844C09F032FC08B92168AFE00AF05EF9A5
S315E6307EA020680AF067FA28B1C37AFF2B02D008F0C9
S315E6307EB0FFF9F2E07F4801F0FBFFA2E07E49606819
S315E6307EC016F090FB064618B90A200AF064FAE4E0A2
S315E6307ED07A49606816F086FB0646002858D1022FA6
S315E6307EE001D12F6807E0032F08D101460A22A068A0
S315E6307EF017F0C6F807464FF0FF3413E0042F40F08C
S315E6307F00828001460A22A06817F0BAF80A2231467C
S315E6307F100746E06817F0B4F80728044602DD07217D
S315E6307F2067486CE0384609F0E8FB814608B93946D9
S315E6307F3064E00AF013F9631C19D099F88230FF2B06
S315E6307F4003D1604801F0C4FF5BE099F883309C4288
S315E6307F500DD02146384609F05DFD18B989F88340DB
S315E6307F60594A00E0594A2146594801F0B1FF99F895
S315E6307F7082302F60FF2B04D13946564801F0A8FFF0
S315E6307F808BE099F883203946534801F0A1FF84E027
S315E6307F90052F0AD15149606816F024FB68B150497D
S315E6307FA0606816F01FFB88B32DE0042F2BD14D49C0
S315E6307FB0606816F017FB60B325E04FF001092868D4
S315E6307FC009F09BFBB9F1030F074662D01022002178
S315E6307FD0A06817F055F8032382461022002154F89C
S315E6307FE023009E0017F04CF82644102200218346E3
S315E6307FF0706817F045F8064677B929683A4801F0C9
S315E630800067FF012649E04FF0FF3646E04FF00209BA
S315E6308010D5E74FF00309D2E700905B462A686168F8
S315E6308020324801F055FF38460AF098F8B9F1020FB2
S315E630803010D0B9F1030F16D01A485946D7F804517D
S315E6308040534632460068A847710205465046FCF765
S315E6308050A6FA10E013485346D7F808513246594641
S315E63080600068A84706E00F483246D7F80C3159463D
S315E6308070006898470546144A2946144B1C48B542CB
S315E630808008BF1346626801F023FFAE1B18BF012610
S315E630809003E04FF0000A02239FE7304602B0BDE820
S315E63080A0F08E00BF6C3F33E6088A32E6218A32E646
S315E63080B0E49D32E6428A32E6578A32E65C8A32E630
S315E63080C0608A32E6878A32E6058A32E6FF8932E622
S315E63080D0A98A32E6C58A32E6DE8A32E6008B32E6AF
S315E63080E03A7132E6058B32E6288A32E60B8B32E691
S315E63080F0388B32E613B5364C2368002B0ADA0AF0AB
S315E63081006FF9002802DD0023236003E0314801F0F1
S315E6308110CFFE59E0206809F0F0FA044600284ED042
S315E63081200AF01CF804F108012B4801F0D1FE94F868
S315E630813073102A4801F0CCFE216F2948C1F30F218E
S315E630814001F0C6FE626F94F870102648D3B20193FA
S315E6308150C2F307230093C2F30743120E01F0B8FECB
S315E6308160D4F88410204801F0B3FED4F888101F48BE
S315E630817001F0AEFE226B1E4812F4003F1D49D3B223
S315E6308180C2F3032218BF01461B4801F0A1FE1B4B82
S315E63081901B4A216C1B48002914BF1146194601F0CB
S315E63081A097FE194801F084FED4E92601174A15F000
S315E63081B09FF9616C164801F08BFE002005E0044B12
S315E63081C01448196801F084FE012002B010BD00BFE4
S315E63081D06C3F33E6088A32E6558B32E6618B32E619
S315E63081E0768B32E67F8B32E6928B32E6A28B32E6BE
S315E63081F02EAF32E64A8B32E6B48B32E6528B32E635
S315E63082004E8B32E6C68B32E6D98B32E6FCCE32E69A
S315E6308210E48B32E6288A32E62DE9F042074688B024
S315E630822055480E4614461D4600F08AFC28B1102203
S315E6308230002116F025FF514B1860022C0AD0032C8C
S315E63082401DD0012C27D06FF04F0004F0ADFD4FF076
S315E6308250FF308DE0102201A9686816F011FF6C68D0
S315E63082608146204616F0EAF9019B2044834203D143
S315E6308270424BC3F800900EE08022696808E010228F
S315E63082800021686816F0FCFE3C4BA968802218602F
S315E63082903B4819F0D5FD502004F086FD384619F0F6
S315E63082A0B9FE041E05DA6FF0500004F07DFD0120BC
S315E63082B05EE0512004F078FD324B186830B102A901
S315E63082C019F0E9FD02A9304800F0F6FA2F4B1868A6
S315E63082D030B102A919F0DFFD02A92D4800F0ECFA1B
S315E63082E02C490B7813B12C4800F0E6FA2B490B787B
S315E63082F013B12B4800F0E0FA2A4B186830B102A9E0
S315E630830019F0C9FD02A9284800F0D6FA274B1868B5
S315E630831030B102A919F0BFFD02A9254800F0CCFA22
S315E6308320244B186830B102A919F0B5FD02A92248E6
S315E630833000F0C2FA21490B7813B1214800F0BCFAB5
S315E630834014B96FF0510010E00C4B21461868FCF773
S315E630835026F9522004F028FD29683046FDF758FD07
S315E6308360041EB4BF6FF05200542004F01DFD2046C3
S315E630837008B0BDE8F08200BFE26332E6A04633E6F7
S315E63083800A6737E6906737E6358D32E6946737E63D
S315E63083903F8D32E6388637E6478D32E6F88537E67C
S315E63083A0508D32E6F06637E6598D32E6986737E62F
S315E63083B0608D32E6788637E6698D32E6588637E678
S315E63083C06F8D32E60146002026E70146032023E795
S315E63083D00146042020E7014607201DE7012A10B5AD
S315E63083E01C4602DC4FF0FF3010BD586816F030F808
S315E63083F0094B18600028F5D0052019F00BFE6168A8
S315E6308400002804DA054801F063FD012010BD044872
S315E630841001F05EFD002010BD2C8F37E6768D32E614
S315E6308420998D32E6F8B504271546012D1E4605DC4C
S315E6308430124A002413680133136010E053F8042F10
S315E630844011782D29F4D1013D12F8011F0029ECD01F
S315E630845066294FF00607F7D04FF0FF30F8BD013DFD
S315E6308460002D09DD3A46064956F8040F15F03AFC72
S315E6308470002808BF0124F2E72046F8BD703F33E610
S315E6308480784633E608B5054B0548196801F020FD10
S315E630849003F03AF8003018BF012008BD884633E6C7
S315E63084A0DB8E32E6012A2DE9F04206460F4611DD2D
S315E63084B0541E0A490922586803F1040901F022FBE1
S315E63084C040B1C5684B46224639463046AC46BDE8ED
S315E63084D0F04260474FF0FF30BDE8F082743F33E656
S315E63084E010B58AB000230A460493A8B1144A079316
S315E63084F000930AAB029205AA06900391019213E91C
S315E63085000F0015F09BFA059CB4B194E806000D48C9
S315E630851001F0DEFC04460FE0029004AB01900A213E
S315E63085200090074815F01EFC044628B1049801F081
S315E6308530BFFC049801F06AFE20460AB010BD00BFC3
S315E6308540784633E6F88E32E6012AF8B514460ADD81
S315E63085505A6811782D2909D15278612A06D1013C1B
S315E63085600433002100E00821012C03D01D46002605
S315E6308570012716E00020FFF7B3FF0146A8B10C4A03
S315E63085800C4801F0A5FC0020F8BD002155F8040F93
S315E6308590FFF7A6FF20B929680136074801F098FCAF
S315E63085A00137A742F1DB3046F8BD2046F8BD00BFBD
S315E63085B0FCFF0300FF8E32E6208F32E62DE9F046E9
S315E63085C0002787B04FF00A0915469A463A463C46A2
S315E63085D0013D002D29DD5AF8040F01782D2927D1E2
S315E63085E010F8011F0029F3D063290BD002D862298F
S315E63085F005D01AE0642910D0742909D015E072B98D
S315E6308600012202E05AB9012214464FF00009E7E7A3
S315E63086102AB901224FF00A09E2E70127E0E71968AD
S315E6308620354801F055FC012063E04FF0FF3060E05D
S315E630863012B9324801F04CFC10220021DAF800007B
S315E630864016F01EFD022D064607D110220021DAF875
S315E6308650040016F015FD054618E000F580120346CF
S315E63086609D1B13F8011B894501D1197841B19A4210
S315E6308670F6D14FF48011224801F02AFC4FF48015EA
S315E6308680023520482A46294601F022FC94B1314685
S315E6308690043D0436042205A8FCF732EA2A4631467A
S315E63086A0002014F003FF059B984203D0164801F0EC
S315E63086B0FFFBB8E7002487F0010702944B460194A6
S315E63086C02A4600973146114815F01EFC50B9104B34
S315E63086D01049114A00934FF47B7309680F4801F04D
S315E63086E0F7FBA0E7D8F80430204643F08003C8F815
S315E63086F0043007B0BDE8F086F78F32E63C8F32E6D7
S315E6308700269032E6638F32E68B8F32E6784633E66C
S315E6308710544532E6186037E6AD8F32E6BA8F32E642
S315E6308720002138B5013A002A0FDD53F8044F257893
S315E63087302D2D14D114F8015F002DF3D0612D02D022
S315E6308740662DF7D007E00121F4E721B11AB90848DA
S315E630875002F042FC09E0BDE8384001F013BA0029E0
S315E6308760F9D11946104602F075FC002038BD00BF37
S315E63087705B9032E62DE9F04604278BB08246BAF1B5
S315E6308780010F0D4608DC6E683D21304615F04AFF8E
S315E6308790A0B131463B4839E051F8043F1A782D2AE4
S315E63087A0F1D10AF1FF3A13F8012F002AE7D0662A0B
S315E63087B04FF00607F7D04FF0FF3060E0324ABAF1B5
S315E63087C0020F136803F10103136001DDAB6843B9A9
S315E63087D03A462E49304615F085FAB0FA80F0400929
S315E63087E04DE04FF00209044655F8290009F1010932
S315E63087F015F024FFCA4504F101040444F4D12046B9
S315E630880001F0B2FD814628B92148214601F060FBE8
S315E6308810012034E005F108014FF0200E05EB8A051C
S315E6308820034651F8044B14F8012B184603F8012B8E
S315E6308830002AF8D1A94280F800E0F2D1994518BF6E
S315E630884003F8012C114B01240696CDF81C900293C1
S315E630885005AB01930AAB0397009413E90F0015F0C5
S315E6308860EDF8484601F0D2FC059B3BB9094B31465B
S315E630887009481A6801F02CFB204600E000200BB0D0
S315E6308880BDE8F086809032E6703F33E6784633E6EA
S315E6308890B69032E6186037E6D09032E6012A02DD47
S315E63088A01946104666E74FF0FF307047014B1868B9
S315E63088B0704700BF703F33E61FB5094B0190029112
S315E63088C000930023039309B10B7813B96946022066
S315E63088D001E003206946FFF74DFF05B05DF804FB7E
S315E63088E0FC9032E62DE9F04E00251C461B6890B02A
S315E63088F00A2783461646AA46A9460493731E002BD4
S315E630890038DD606802782D2A37D110F8012F42B368
S315E6308910632A0AD002D8622A05D02BE0732A09D018
S315E6308920742A1AD026E01DB11EE0EDB94FF0010AE1
S315E63089302F4614E0B31E002B03DC584601F022F92D
S315E63089406DE0A06810220021059316F099FB04F13C
S315E63089500806059B3446814604E02DB90A270125EB
S315E6308960D3E704341E46C9E704992E4801F0B0FA37
S315E6308970012054E04FF0FF3051E01022002116F08E
S315E63089807FFB0690B9F1000F03D04A460021FCF78B
S315E630899048E8023E083487B100220294019606ABD7
S315E63089A0CDF800903946204815F0DCF9021E2DDA6E
S315E63089B01E4B009340F2623317E0069DBAF1000F84
S315E63089C002D02B1D079300E0079502940022184C3F
S315E63089D007AB019611461448009415F0C3F9061E06
S315E63089E00ADA124B00934FF45D731249124A134872
S315E63089F0096801F06DFABBE7BAF1000F05D02246F9
S315E6308A00291D002014F052FD2860321D0C4908A8B5
S315E6308A1016F009FC08A90B48FFF74EFF002010B008
S315E6308A20BDE8F08EF78F32E6784633E6624532E6D3
S315E6308A30FCFF0300186037E6AD8F32E6039132E687
S315E6308A40409132E6826C32E610B50446084616F0B8
S315E6308A5017FC01462046BDE81040FFF72DBF10B59E
S315E6308A6086B00A460446054901A816F0DCFB01A99C
S315E6308A702046FFF721FF06B010BD00BF756B32E624
S315E6308A80F8B50D460646A0B12846377802F069FABB
S315E6308A906C1C874206D116F8013B25463D2BF3D1B1
S315E6308AA02046F8BD337823B9284602F05AFA3D28EF
S315E6308AB002D04FF0FF30F8BD2046F8BD2DE9F04E36
S315E6308AC00025DFF878A007460E469146284602F09E
S315E6308AD048FA10B94FF0FF352AE02C46204602F028
S315E6308AE040FA18B15445F5DC0134F7E729463846FD
S315E6308AF0FFF7C6FF002805DB06EB090B3446C6EB67
S315E6308B00000A06E0651CE1E702F02BFA04F8010BF1
S315E6308B1070B15C450AEB0400A4EB0605F4D115B159
S315E6308B20002304F8013C3A464946034801F0D0F9B9
S315E6308B302846BDE8F08E00BF449132E6FFFF0300DB
S315E6308B40D8F80430414610B513F080048AB011D017
S315E6308B500E4A00230793039300930AAB029205AAC3
S315E6308B600690019213E90F0014F068FF059850B1AC
S315E6308B70406808E020225C31FFF7A0FF0028CCBF32
S315E6308B8008F15C0020460AB010BD00BF784633E6F1
S315E6308B9038B50D461446FFF7D3FF28B12A460021ED
S315E6308BA0BDE8384016F06CBA204638BD012A10B515
S315E6308BB01C46C0B015DD5868FFF7C2FF024620B145
S315E6308BC00A49684616F02FFB01E08DF80000694643
S315E6308BD00022074804F0E9F869466068FFF76CFE5C
S315E6308BE001E04FF0FF3040B010BD00BFDB8432E627
S315E6308BF0749132E60B4B10B504469C42084607D9CB
S315E6308C00FBF77EFE810A2046012938BF012106E0C0
S315E6308C10FBF776FE0128014638BF0121A0021BF09C
S315E6308C20AAE910BDFEFF3F00012A2DE9F04E1C46AB
S315E6308C308AB040F3A0815E68551EA849304615F0E5
S315E6308C40D1FC074600285CD1012D00F0D9810246D9
S315E6308C5009A9A06816F014FAA3681B788146002B9A
S315E6308C6000F089810998037883B13A2B40F0838105
S315E6308C704378002B00F07F813A4609A9013016F099
S315E6308C80FFF9099B1B78064613B174E14E469946C1
S315E6308C90022D00F0B781002209A9E06816F0F0F956
S315E6308CA0E3681B780746002B00F06581099B1B7845
S315E6308CB0002B40F06081032D0ED0102209A92069E1
S315E6308CC016F0DEF9226912780346002A00F053815F
S315E6308CD0099A12780AB14EE12B463A46314648466B
S315E6308CE00AF0D7FD054618B9324649467C487AE158
S315E6308CF07C4B18681C4608B10AF014FE2560002045
S315E6308D0083E1784F3B680BB977484EE07749304692
S315E6308D1015F068FC10B9032D0DDC2CE174493046AC
S315E6308D2015F060FC0028F6D07249304615F05AFC4C
S315E6308D300028F0D018E1102209A9A06816F0A0F9AB
S315E6308D40A3681B780190002B00F01581099B1B78F0
S315E6308D50002B40F01081102209A9E06816F090F950
S315E6308D60E3681B780646002B00F00581099B1B78E5
S315E6308D70002B40F00081102209A9206916F080F90F
S315E6308D8023691B788146002B00F0F580099B1B781A
S315E6308D90002B40F0F0803B689A683318934200F235
S315E6308DA02081019B00931BB9534801F081F825E1F8
S315E6308DB05049606815F016FC002840F0C680D7F8B2
S315E6308DC000A0FBF79DFDB9F1C70F049005DD6421E0
S315E6308DD048461BF034E9079001E001230793DAF8B9
S315E6308DE0100001F0C1FA0290002864D0019B002001
S315E6308DF04B440593FBF784FD002303939B4606908D
S315E6308E00059B009A93425AD9BBF1000F57D1059B81
S315E6308E10009ADAF810509B1A06989D421F4628BFEC
S315E6308E201D46FBF76DFD642814D9009B019A04991B
S315E6308E30981AFFF7DFFE0799069038461BF09AE850
S315E6308E40069AC0F164012D4801F042F85846FBF720
S315E6308E5057FD0690029B2A4631465046DAF814709C
S315E6308E60B847F0B92A460099029815F0A5FC18B924
S315E6308E70039B2B44039319E0DAF81C302A46314635
S315E6308E805046984780B9009B2A4631465046DAF82E
S315E6308E901870B847164B00280CBF4FF0000B9B46B0
S315E6308EA004E0DFF848B001E0DFF858B0009B2E4426
S315E6308EB02B440093A4E7029BDFF84CB00393029869
S315E6308EC001F0A4F90D2000F0E3FFBBF1000F1DD051
S315E6308ED059460B4800F0FCFF8CE000BF1C9432E6A6
S315E6308EE0229432E6C06533E64B9432E6008B32E6C0
S315E6308EF03A7132E6799432E6AC9432E6CB9432E69F
S315E6308F00E79432E6058B32E6159432E60498FBF7BB
S315E6308F10F7FC039AC2EB090104463D4800F0D8FF58
S315E6308F2004994846FFF766FE4FF47A7106462046C0
S315E6308F301BF074E8374B3848A4FB034533460A46FC
S315E6308F40A90900F0C5FF58465FE03449606815F078
S315E6308F5049FB10B93868456901E038688569019B8F
S315E6308F604A463146A84744E02D49304615F03AFBA5
S315E6308F7008B9022D02DC4FF0FF3046E0102208A990
S315E6308F80A06816F07DF8A3681B780646002BF2D06B
S315E6308F90089B1B78002BEED1E568102209A92B78C1
S315E6308FA02B2B06BF01354FF001094FF00009284655
S315E6308FB016F066F8099B9D420246DCD01B78002BFC
S315E6308FC0D9D1B9F1000F06D03B681B691BB1581EE3
S315E6308FD05B4202441A403868B1188368994205D92B
S315E6308FE01A4661680F4800F073FF07E0C3693146F9
S315E6308FF0984750B161680C4800F06AFF012004E0FA
S315E630900006468146094F032367E60AB0BDE8F08E89
S315E6309010049532E6D34D6210299532E6008B32E678
S315E6309020058B32E6809432E6469532E640420F00CC
S315E6309030F0B511F0010785B01D4616464FF0000330
S315E63090404E4C039351D1012A4FDD0A2203A96868B3
S315E6309050276016F015F8039B1A783A2A606006D12F
S315E63090600A2203A9581C16F00BF8A06001E0A060AE
S315E63090706760039803782E2B05D10A22002101304A
S315E630908015F0FEFF2060022E2FD00A220021A868B6
S315E630909015F0F6FF032EE06027D0EB680025039344
S315E63090A00398017809B3A1F13003DBB2092B0BD96A
S315E63090B0A1F13703DBB20F2B06D9A1F15703DBB2A9
S315E63090C00F2B01D92E4816E06A1015F0010F22440F
S315E63090D008BF1B0100F1010005F1010518BF117C3F
S315E63090E0039018BF0B431374DAE7E168234DB1F505
S315E63090F0807F03D9234800F0EBFE0CE02B68224A4A
S315E6309100A96868680BF097FE074630B9AA686968B9
S315E63091101E4800F0DDFE01202DE00BF0C3FE0323F2
S315E630912005F110020093384605F13003E96830352B
S315E63091300BF0C8FF08B9064604E01548012400F0EE
S315E6309140C7FE11E0E368DA1D48BF03F10E02B6EB5F
S315E6309150E20F05DAA95D01360E4800F0B9FEF1E711
S315E63091600D48002400F0B4FE38460BF09DFE384636
S315E63091700BF096FE204605B0F0BD00BFC46533E67B
S315E6309180519732E66D9732E640420F00809732E6E7
S315E6309190969732E6B49732E6FCCE32E6072816D014
S315E63091A008D801280FD01CD302280ED0032816D1B2
S315E63091B00D48704709280ED00BD30A280DD0FF2864
S315E63091C00DD10A4870470A4870470A4870470A4838
S315E63091D070470A4870470A4870470A4870470A484F
S315E63091E070470A48704700BF039932E6359932E64A
S315E63091F0EF9832E6F59832E6139932E61B9932E67F
S315E6309200289932E62C9932E6A87F32E6E19832E6BC
S315E6309210032838B50C46154605D008281AD0002856
S315E630922042D125480CE0254800F052FE3CB1012CEF
S315E630923038D1234800F04CFE012D09D004D221481E
S315E6309240BDE8384000F044BE022D2BD11E48F7E784
S315E63092501E48F5E71E48013C00F03AFE052C10D8CC
S315E6309260DFE804F0030507090B0D1A480AE01A4849
S315E630927008E01A4806E01A4804E01A4802E01A48B6
S315E630928000E01A4800F024FE194800F021FE012DD0
S315E630929004D005D3502D05D11648D1E71648CFE789
S315E63092A01648CDE71148CBE7FFF778FFBDE83840FB
S315E63092B00146134800F00CBEE19832E6459932E6AF
S315E63092C0669932E6619932E6759932E66C9932E616
S315E63092D07B9932E68A9932E68F9932E6A19932E679
S315E63092E0B09932E6B49932E6BD9932E6448732E64B
S315E63092F0879932E6E89932E6CA9932E6D79932E67E
S315E6309300DB8432E62DE9F34E044608460D4615F083
S315E630931095F9294604F224674FF000090646504887
S315E630932000F0D6FDD4F81C163A464B468B4207DAA1
S315E630933052F8040F0133002818BF4FF00109F5E75C
S315E6309340D4F824264AB3D2F81C064FF0010A002395
S315E6309350834217DA03F5C57152F821108C420FD1E4
S315E630936002EB830101F5C561013303F1FF3E70453A
S315E630937006DD51F804EFBEF1000FF5D04FF0000AE6
S315E63093800133E5E7374800F0A3FDBAF1000F07D021
S315E6309390AB19202203F8012C02E0334800F098FDA1
S315E63093A02168324800F094FD2023AB55B31C0136D4
S315E63093B0B9F1000F14BF7C22202205EB0309AA552A
S315E63093C00022EA5494F82101FFF7E8FE6268032AA0
S315E63093D0014606D02648274B012A0CBF1A460246D6
S315E63093E000E0254A94F81A3104F1080A234804F1D4
S315E63093F0280B04F148065B0000F06AFD504615F08E
S315E63094001DF938B100965B46524629461C4800F0AF
S315E63094105FFD09E0584615F011F90028F2D13046DD
S315E630942015F00CF90028EDD12946164800F050FD26
S315E6309430D4F81C36002B0FDD0026B246D4F81C369F
S315E63094409E4209DA57F8040F20B12946FFF75AFF4C
S315E630945089F800A00136F1E702B0BDE8F08E00BF2C
S315E6309460DA8432E60C9A32E6CED932E6109A32E62B
S315E6309470049A32E6FB9932E6F29932E6149A32E605
S315E6309480249A32E690D132E610B5D0B071B10DF10C
S315E63094903F044FF4807324F03F04224604F090FFF5
S315E63094A0002803DD2146024800F012FD50B010BD1B
S315E63094B0339A32E62DE9F34E054690F817115248BF
S315E63094C000F006FD95F81901504B10F0400F504A62
S315E63094D095F8161118BF1A4610F0200F95F81A317E
S315E63094E04C484FEA430300934B4B18BF03464B4871
S315E63094F000F0EEFC95F8183153B1494800F0E8FC37
S315E6309500284695F81811FFF7BFFF464800F0E0FC0D
